:100000000C945D000C9485000C9485000C942306E0
:100010000C9423060C9423060C9485000C94850004
:100020000C9485000C9485000C9485000C9485003C
:100030000C9485000C9485000C9485000C9485002C
:100040000C94D9050C9485000C94A7050C9481059B
:100050000C9485000C9485000C9485000C9485000C
:100060000C9485000C94850000000008000201003B
:100070000003040700000000000000000000000072
:10008000250028002B0000000000240027002A0083
:10009000040404040404040402020202020203032E
:1000A0000303030301020408102040800102040836
:1000B0001020010204081020210711241FBECFEFD9
:1000C000D8E0DEBFCDBF24E0A6EAB3E001C01D92B8
:1000D000A735B207E1F713E0A0E0B1E0E0E1F1E11C
:1000E00002C005900D92A63AB107D9F710E0CDE510
:1000F000D0E004C02197FE010E944E07CC35D10705
:10010000C9F70E942D060C9486080C9400009C01EF
:100110002C5F3F4FFC015191CF015EBD0DB407FE36
:10012000FDCF82179307B1F7962FFB012FEF8E2F8C
:10013000891B841738F42EBD0DB407FEFDCF8EB594
:100140008193F5CF089590E0FC01EC55FF4F249189
:10015000FC01E057FF4F8491882399F090E0880FCD
:10016000991FFC01EA57FF4FA591B491FC01E45897
:10017000FF4F859194918FB7F894EC91E22BEC931B
:100180008FBF0895CF92DF92EF92FF920F931F934C
:10019000CF93DF936C017A018B01C0E0D0E0CE15E4
:1001A000DF0589F0D8016D918D01D601ED91FC91AB
:1001B0000190F081E02DC6010995892B11F47E0193
:1001C00002C02196ECCFC701DF91CF911F910F9113
:1001D000FF90EF90DF90CF900895FC01538D448DF8
:1001E000252F30E0842F90E0821B930B541710F0E2
:1001F000CF96089501970895FC01918D828D9817EF
:1002000061F0828DDF01A80FB11D5D968C91928DFA
:100210009F5F9F73928F90E008958FEF9FEF0895F7
:10022000FC01918D828D981731F0828DE80FF11DC0
:10023000858D90E008958FEF9FEF0895FC01918DDB
:10024000228D892F90E0805C9F4F821B91098F73D4
:100250009927089586EB93E00E941E0121E0892BE7
:1002600009F420E0822F0895FC01848DDF01A80F9E
:10027000B11DA35ABF4F2C91848D90E001968F73CE
:100280009927848FA689B7892C93A089B1898C91ED
:1002900080648C93938D848D981306C00288F389B3
:1002A000E02D80818F7D80830895EF92FF920F93E0
:1002B0001F93CF93DF93EC0181E0888F9B8D8C8D12
:1002C000981305C0E889F989808185FD24C0F62E40
:1002D0000B8D10E00F5F1F4F0F731127E02E8C8DD9
:1002E000E8120CC00FB607FCFACFE889F9898081C3
:1002F00085FFF5CFCE010E943401F1CF8B8DFE0139
:10030000E80FF11DE35AFF4FF0820B8FEA89FB895A
:100310008081806207C0EE89FF896083E889F9895E
:1003200080818064808381E090E0DF91CF911F9194
:100330000F91FF90EF900895CF93DF93EC01888D9C
:100340008823C9F0EA89FB89808185FD05C0A889D9
:10035000B9898C9186FD0FC00FB607FCF5CF80815F
:1003600085FFF2CFA889B9898C9185FFEDCFCE01A9
:100370000E943401E7CFDF91CF91089580E090E0B3
:10038000892B29F00E942A0181110C940000089504
:1003900090E0FC01E859FF4F3491FC01EC55FF4F10
:1003A0002491FC01E057FF4FE491EE2309F43BC098
:1003B000332339F1333091F038F43130A9F0323051
:1003C00001F584B58F7D12C0373091F03830A1F03F
:1003D0003430B9F4809180008F7D03C0809180001B
:1003E0008F77809380000DC084B58F7784BD09C05E
:1003F0008091B0008F7703C08091B0008F7D809393
:10040000B000F0E0EE0FFF1FE458FF4FA591B4914C
:100410008FB7F894EC91611103C020952E2301C091
:100420002E2B2C938FBF08953FB7F8948091B20381
:100430009091B303A091B403B091B50326B5A89BE6
:1004400005C02F3F19F00196A11DB11D3FBFBA2F66
:10045000A92F982F8827820F911DA11DB11DBC01C6
:10046000CD0142E0660F771F881F991F4A95D1F78B
:100470000895462FDB0120E130E09A2F941B981756
:10048000A0F49D91722F6627F901EE0FEF2FEE1F5A
:10049000FF0BF195E927FF27EE0FFF1FEA58FE4FEC
:1004A0002081318126273727E8CFC901880F991F7E
:1004B000089560E08AE00E94C80183E090E001971F
:1004C000F1F761E08AE00C94C801CF9361E08AE023
:1004D0000E94C80188E00E94A30060E088E00E94BA
:1004E000C801CFB7F8948091A803811124C0EAE92C
:1004F000F0E08491EEEAF0E09491E82FF0E0EE0F66
:10050000FF1FEA57FF4FA591B491EC91E92321F425
:1005100061E08AE00E94C8018AE00E94A3008CB5D5
:1005200080618CBD8CB580648CBD8DE00E94A30081
:100530008BE00E94A3008091A8038F5F8093A803A3
:10054000CFBF8CB58C7F81608CBD8DB58E7F8DBD0E
:1005500083E08093AB0380E68093AC0395E09093B7
:10056000A9038093AA03CF910895089580E090E0B5
:1005700008958EBD0DB407FEFDCF8EB508951F936F
:10058000CF93DF931F92CDB7DEB7182F2A9882E062
:1005900069830E94B902812F0E94B9026981862F66
:1005A0000E94B9022A9A0F90DF91CF911F9108956E
:1005B0009F92AF92BF92CF92DF92EF92FF920F93F2
:1005C0001F93CF93DF9300D000D0CDB7DEB77C016F
:1005D00080E490E00E9454076C01198282E08A83D3
:1005E0008BE28B838AE08C830E94590260E08AE070
:1005F0000E94C80140E4B601CE0101960E94870026
:1006000061E08AE00E94C801870188E0E80EF11CE1
:10061000A12CB12C912CD601AA0DBB1DF8018D91F6
:100620008193EE15FF05D9F7B80186E00E943902E3
:10063000F7013297208130E0322F22273196408116
:10064000240F311D2817390711F099249A9488E056
:10065000A80EB11C085F1F4F88E0E80EF11C80E473
:10066000A816B104C1F6C6010E94E907892D0F90B2
:100670000F900F900F90DF91CF911F910F91FF90EE
:10068000EF90DF90CF90BF90AF909F900895EF9242
:10069000FF920F931F93CF93DF938C0184E490E03C
:1006A0000E945407EC01188281E089838DE38A83DC
:1006B0008EE68B83065D1F4FE12CF12C84E08E0DBE
:1006C0009AE09E0DF8012191DE01A80FB11D2C9337
:1006D0008F5F8913F8CFB80186E00E943902FE01CE
:1006E000EE0DFF1D928783870650110988E0E80E02
:1006F000F11C80E4E816F10409F70E94590260E059
:100700008AE00E94C801FE01CE018C5B9F4F2191BF
:100710002EBD0DB407FEFDCFE817F907C1F761E064
:100720008AE00E94C801CE01DF91CF911F910F9105
:10073000FF90EF900C94E907009769F0FC0101909D
:100740000020E9F73197AF01481B590BBC0186EB3C
:1007500093E00C94C20080E090E008950E9481082C
:100760002F923F924F925F926F927F928F929F92C1
:10077000AF92BF92CF92DF92EF92FF920F931F93AF
:10078000CF93DF93CDB7DEB7C35DD1400FB6F894FA
:10079000DEBF0FBECDBF60E08AE00E94C8010E94AC
:1007A00014026B017C010E941402DC01CB018C1944
:1007B0009D09AE09BF09883E9340A105B10598F394
:1007C00061E08AE00E94C80119A280E388A3CE01FB
:1007D00080960E949C038E010F5D1E4F34E0432ED5
:1007E000400E6E0121ECC20ED11C0E946502809168
:1007F000AB03D8018C938091AC0311968C936BEA78
:1008000073E082E00E943902F801928383830E94A0
:10081000590260E08AE00E94C801F80181918EBD12
:100820000DB407FEFDCF4E12F9CF61E08AE00E94C1
:10083000C80180E490E00E9454077C01A12CB12CF7
:1008400051E0BAE05B2E88E0782E96E0892E24E015
:10085000922E513029F4D80111969C9211970BC019
:10086000523019F4F80181820AC0533031F4D801B2
:1008700011967C9211971C9203C0F801518210824C
:10088000B80182E0CF52DE4F5883C15DD1400E9453
:100890003902D80112969C93129713968C930E945A
:1008A000590260E08AE00E94C80140E4B701C80133
:1008B0000E94870061E08AE00E94C80180E090E029
:1008C00040E0CF52DE4F5881C15DD140E0E0F0E022
:1008D000BC016A0D7B1D242F2E0FDF01A60FB71F51
:1008E00022242394312C2C0E3D1E2A0E3B1ED701B0
:1008F000A20FB11D6C9011962C9130E0322F22275F
:10090000260D311DD1012D933C933296E630F10531
:1009100011F7485F48964034C9F65F5FB6E0AB0E0A
:10092000B11C553009F095CFC7010E94E907FE01BF
:1009300031967F0180E090E00196883091058CF43B
:1009400086309105C9F760E070E082E00E943902CC
:10095000D7011C961C921C971D968C9387E090E003
:10096000EBCFB8E1EB0EF11CEC14FD0419F787E0B6
:10097000F801808381E18183B80182E00E9439021D
:10098000D80112969C93129713968C930E94590249
:1009900060E08AE00E94C80140E060E070E0C801C9
:1009A0000E94870061E08AE00E94C80180E490E034
:1009B0000E9454077C01A12CB12C992493948EE0C1
:1009C000782E8CE0F80181831082B80182E00E94C9
:1009D0003902F801928383830E94590260E08AE021
:1009E0000E94C80140E4B701C8010E94870061E08D
:1009F0008AE00E94C80180E090E0812C40E050E055
:100A0000BC016A0D7B1D282D240FFA01E60FF71F8C
:100A1000EC0DFD1DD701A20FB11D6C9011962C910C
:100A200030E0322F2227260D311D318320834E5F87
:100A30005F4F4630510539F7F8E08F0E0C9620E4F1
:100A4000222E8210DBCF26E0A20EB11C82E0981687
:100A500041F0B2E09B2ED80111967C9211971C9226
:100A6000B4CFC7010E94E90787E0D8018C9382E1E7
:100A700011968C93B80182E00E943902F8019283AA
:100A800083830E94590260E08AE00E94C80140E02E
:100A900060E070E0C8010E94870061E08AE00E9487
:100AA000C8017E01FFE5EF1AFEEFFF0A80E3D701E0
:100AB0001D928A95E9F781E0F70185838287878710
:100AC000848B818F868F80E4E6E0F1E0DE01AF5910
:100AD000BE4F01900D928A95E1F780E4E6E0F1E0E7
:100AE000D80101900D928A95E1F7CE018F599E4F62
:100AF0000E94D802C7010E944703C8010E94D80281
:100B000074CE1F920F920FB60F9211242F933F9322
:100B10004F935F936F937F938F939F93AF93BF9305
:100B2000EF93FF9386EB93E00E943401FF91EF91E6
:100B3000BF91AF919F918F917F916F915F914F91F5
:100B40003F912F910F900FBE0F901F9018951F92FD
:100B50000F920FB60F9211242F938F939F93EF93C1
:100B6000FF93E091C603F091C7038081E091CC032D
:100B7000F091CD0382FD12C090818091CF038F5FF1
:100B80008F732091D003821751F0E091CF03F0E0F2
:100B9000EA54FC4F958F8093CF0301C08081FF9171
:100BA000EF919F918F912F910F900FBE0F901F90FB
:100BB00018951F920F920FB60F9211242F933F9307
:100BC0008F939F93AF93BF938091AE039091AF03A8
:100BD000A091B003B091B1033091AD0323E0230F96
:100BE0002D3720F40196A11DB11D05C026E8230F65
:100BF0000296A11DB11D2093AD038093AE03909387
:100C0000AF03A093B003B093B1038091B20390916E
:100C1000B303A091B403B091B5030196A11DB11D1A
:100C20008093B2039093B303A093B403B093B5033E
:100C3000BF91AF919F918F913F912F910F900FBED8
:100C40000F901F9018951F920F920FB60F921124BC
:100C50000F900FBE0F901F901895CF93DF93CDB7D5
:100C6000DEB7E0970FB6F894DEBF0FBECDBF789425
:100C700084B5826084BD84B5816084BD85B58260A1
:100C800085BD85B5816085BD80916E008160809352
:100C90006E001092810080918100826080938100BB
:100CA00080918100816080938100809180008160CB
:100CB000809380008091B10084608093B100809126
:100CC000B00081608093B00080917A00846080934E
:100CD0007A0080917A00826080937A0080917A0015
:100CE000816080937A0080917A00806880937A0096
:100CF0001092C100E091C603F091C70382E08083A7
:100D0000E091C203F091C3031082E091C403F0911B
:100D1000C50380E180831092CE03E091CA03F09175
:100D2000CB0386E08083E091C803F091C903808102
:100D300080618083E091C803F091C903808188605D
:100D40008083E091C803F091C9038081806880832B
:100D5000E091C803F091C90380818F7D808386E094
:100D60000E94A30061E086E00E94C8010E94650223
:100D700080E3E6E4F1E0DE01119601900D928A95A0
:100D8000E1F7CE0101960E9447032A9A229A2D98F4
:100D90002B982C98259A239A249852985A9A81E550
:100DA0008CBD1DBC2A9880EC0E94B9022A9A85E36A
:100DB0008A95F1F700002A9882E00E94B90288E241
:100DC0000E94B90282E00E94B90280E90E94B90241
:100DD00081E00E94B90283E00E94B9022A9A2A980F
:100DE00083E00E94B9028AE20E94B9028FEF0E945A
:100DF000B9022A9A813021F0289A88E893E016C037
:100E000060E08CE00E94BF0260E08DE00E94BF02C3
:100E100060E680E60E94BF0260E680E70E94BF02B3
:100E200060E08FE00E94BF0289E993E00E949C038A
:100E300086E993E00E949C030E94B0030E94BE01D9
:100E4000FBCFE6EBF3E01382128288EE93E0A0E0A2
:100E5000B0E084839583A683B7838AE793E0918388
:100E6000808385EC90E09587848784EC90E0978779
:100E7000868780EC90E0918B808B81EC90E0938B67
:100E8000828B82EC90E0958B848B86EC90E0978B44
:100E9000868B118E128E138E148E0895EE0FFF1F07
:100EA0000590F491E02D0994CF93DF938230910562
:100EB00010F482E090E0E0915504F091560420E0B7
:100EC00030E0C0E0D0E0309711F140815181481707
:100ED0005907C0F04817590761F482819381209720
:100EE00019F09B838A832BC09093560480935504FA
:100EF00026C02115310519F04217530718F49A013D
:100F0000BE01DF01EF010280F381E02DDCCF21156E
:100F1000310509F1281B390B2430310590F4129664
:100F20008D919C9113976115710521F0FB019383BD
:100F3000828304C09093560480935504FD01329639
:100F400044C0FD01E20FF31F8193919322503109B8
:100F50002D933C933AC02091530430915404232B99
:100F600041F4209102013091030130935404209305
:100F7000530420910001309101012115310541F404
:100F80002DB73EB74091040150910501241B350B4C
:100F9000E0915304F0915404E217F307A0F42E1BE0
:100FA0003F0B2817390778F0AC014E5F5F4F2417CD
:100FB000350748F04E0F5F1F50935404409353047D
:100FC0008193919302C0E0E0F0E0CF01DF91CF91F7
:100FD00008950F931F93CF93DF93009709F48CC06C
:100FE000FC0132971382128200915504109156042D
:100FF0000115110581F420813181820F931F209109
:101000005304309154042817390779F5F0935404A8
:10101000E093530471C0D80140E050E0AE17BF0721
:1010200050F412962D913C911397AD012115310585
:1010300009F1D901F3CF9D01DA0133832283608165
:101040007181860F971F8217930769F4EC0128813D
:101050003981260F371F2E5F3F4F318320838A81CE
:101060009B8193838283452B29F4F0935604E0936C
:10107000550442C01396FC93EE931297ED014991EB
:1010800059919E01240F351FE217F30771F48081F7
:101090009181840F951F029611969C938E93828165
:1010A000938113969C938E931297E0E0F0E0D80121
:1010B00012968D919C911397009719F0F8018C016D
:1010C000F6CF8D919C9198012E5F3F4F820F931F19
:1010D00020915304309154042817390769F430974C
:1010E00029F4109256041092550402C01382128201
:1010F0001093540400935304DF91CF911F910F91EB
:10110000089581E090E0F8940C948608F894FFCF5D
:10111000000057048000FFFFFFFFFFFFFFFFFFFFFE
:10112000FFFFFFFFFFFFFFFFFFFFFFFFFFFFFFFFCF
:10113000FFFFFFFFFFFFFFFFFFFFFFFFFFFFFFFFBF
:10114000FFFFFFFFFFFFFFFFFFFFFFFFFFFFFFFFAF
:10115000FFFFFFFFFFFFF81916A40000F81916A4FF
:101160000000FFFFFFFFFFFFFFFFFFFFFFFFFFFF8D
:10117000FFFFFFFFFFFFFFFFFFFFFFFFFFFFFFFF7F
:10118000FFFFFFFFFFFF000099C5ABCE320BCFD8AA
:10119000561D6416FDD307F49E31AC3A35FFC82CBA
:1011A00051E963E2FA2797AD0E683C63A5A658752E
:1011B000C1B0F3BB6A7E9059099C3B97A2525F81F4
:1011C000C644F44F6D8A2E5BB79E85951C50E18313
:1011D00078464A4DD38829AFB06A82611BA4E6776E
:1011E0007FB24DB9D47CB9F6203312388BFD762E00
:1011F000EFEBDDE04425BE0227C715CC8C0971DA80
:10120000E81FDA1443D1C5F35C366E3DF7F80A2BBC
:1012100093EEA1E53820C2075BC269C9F00C0DDF6F
:10122000941AA6113FD4525ECB9BF99060559D86CF
:1012300004433648AF8D55AACC6FFE6467A19A72FD
:1012400003B731BCA879EBA8726D4066D9A32470AE
:10125000BDB58FBE167BEC5C75994792DE57238433
:10126000BA41884A118F7C05E5C0D7CB4E0EB3DD5D
:101270002A18181381D67BF1E234D03F49FAB429F9
:101280002DEC1FE7862213A28A67B86C21A9DC7AAD
:1012900045BF77B4EE7114568D93BF98265DDB8EF3
:1012A000424B7040E985840F1DCA2FC1B6044BD74D
:1012B000D212E01979DC83FB1A3E2835B1F04C23B9
:1012C000D5E6E7ED7E283DF9A43C96370FF2F221F2
:1012D0006BE459EFC02A3A0DA3C891C30806F5D5AF
:1012E0006C105E1BC7DEAA543391019A985F658C1F
:1012F000FC49CE425787ADA03465066E9FAB62783D
:10130000FBBDC9B65073D6514F947D9FE45A1989DD
:10131000804CB2472B82D1A548607A6BE3AE1E7D2C
:1013200087B8B5B32C7641FCD839EA3273F78E24EE
:1013300017E125EABC2F4608DFCDEDC6740389D03E
:101340001015221EBBDBF80A61CF53C4CA0137D285
:10135000AE179C1C05D9FFFE663B5430CDF53026F8
:10136000A9E39BE8022D6FA7F662C4695DACA07F7C
:1013700039BA0BB192746853F196C39D5A58A78B32
:101380003E4E0C459580000000005501C200ED0066
:101390009C011E01FC00100143414E20696E6974DE
:1013A000204641494C000D0A0043414E20696E69B8
:0613B00074204F4B000009
:00000001FF
